:1000000012308A002C2A00000A108A100A11820776
:10001000A0340034A73400348711A11121088316BD
:100020008700831209118316091103108312031725
:100030002C0D7E39AF000830AE00AE0803194328FE
:100040002F088039803C03192928031307122B2815
:100050000317031307162112210883168700831242
:100060008715A11121088316870003108312031737
:10007000AF0D03138711A111210883168700831286
:100080000317AE031D280830AE00AE0803196B2815
:100090002D088039803C0319512803130712532877
:1000A00003170313071621122108831687008312F2
:1000B0008715A111210883168700031083120317E7
:1000C000AD0D03138711A111210883168700831238
:1000D0000317AE034528031309158316091183126C
:1000E0008715A111210883168700831208000317C2
:1000F000AE0103138711A111210883168700831213
:100100000911831609110310831203172B0D7E3971
:100110008038AD000830AC00AC080319B2282D08B7
:100120008039803C03199828031307129A28031773
:1001300003130716211221088316870083128715DF
:10014000A111210883168700031083120317AD0D38
:1001500003138711A1112108831687008312031747
:10016000AC038C280830AC00AC080319D628031364
:100170008715A11121088316870003108312031726
:10018000AE0D0313A11621088316870000308312D9
:10019000871A01300317AE0403138711A111210838
:1001A0008316870083120317AC03B42803130915C1
:1001B0008316091183128715A11121088316870060
:1001C000831203172E08F8000313080002300317E8
:1001D000A200A301A4011A080E3A03130319F4287C
:1001E000023A0319FB28022912300317A30010302A
:1001F000A4000329031377300317A3003030A400B1
:1002000003290313031723088038A8000230AC0029
:100210002808AD0003130C2004300317A800803019
:10022000A900AA012808AB00031377207808031758
:10023000AA002908FF3A2A05AB002808AC002B08C1
:10024000AD0003130C200A300317A8008030A9006A
:10025000AA012808AB000313772078080317AA0027
:100260002A082904AB002808AC002B08AD000313B2
:100270000C2001300317AC00AD0103130C20031751
:10028000A7011D0827020318562927081B07840009
:1002900083131C1883170008A8000930AC00280835
:1002A000AD0003130C200317A70A41290130AC004D
:1002B0001A08AD0003130C2003171A080C3C031D89
:1002C00077290D30A8008030A900AA012808AB00CA
:1002D0000313772078080317AA002A082904AB0023
:1002E0002808AC002B08AD0003130C200317FF30C7
:1002F000A7000430AB000313772078080317A6008B
:10030000A703A70803198A2926188A29260824057D
:10031000031979290D30A8008030A900AA01280806
:10032000AB000313772078080317AA002908FF3AC7
:100330002A05AB002808AC002B08AD0003130C20E5
:100340000317A70803191E2A0630AB0003137720F2
:1003500078081B39031D1B2A0317A2012608230551
:1003600001390319B5290130A2001A080C3C031DFC
:10037000192A0A30AB000313772078080317A60068
:100380000C30AB0003137720780807390317A5005A
:10039000A5080319DC29200884008313211883177A
:1003A00001302602F700F70DF70DF70DF830F705CD
:1003B000770825078000E929200884008313211885
:1003C0008317260DF700F70DF70DF830F7057708BE
:1003D0008000A608031DEE290130A6002608103C67
:1003E0000318F4291030A600A701260827020318D5
:1003F000122A27081E07F8001F08FA000318FA0A35
:100400007808A8007A08A9000930AB000313772008
:10041000031728088400831329188317780880009D
:10042000A70AF52927081E07840083131F188317BE
:1004300080011E2A031302300317A2002208F800CD
:1004400003130800F701F80103171108031012182D
:10045000F707F70CF80C9218F707F70CF80C1219BD
:10046000F707F70CF80C9219F707F70CF80C121AAB
:10047000F707F70CF80C921AF707F70CF80C121B99
:10048000F707F70CF80C921BF707F70CF80C03139F
:100490000800031797011708043C031C662A170875
:1004A000150784008313161883170008980017088F
:1004B0001307840083131418831700081802031904
:1004C000642A0030F800682A970A4B2A0130F800A5
:1004D0000313080003179201763091002630930031
:1004E00012089500110894000D30AC000730AD00E3
:1004F00003130C20031714088400831315188317A3
:10050000130880000C309A0015089C0014089B000A
:1005100001309D0015089F0014089E000130A100C5
:100520001730A0000313E6207808031796009608FA
:10053000031D9E2A1708103C0319A02A02309600BA
:100540001608F800F808031DA92A0130F800AB2AA4
:10055000AB2A0030F800F8080319B32C9201703070
:100560009100120895001108940098010D30AC001C
:10057000AD0103130C20031714088400831315180E
:1005800083179330800001301407840083131518FB
:100590008317203080000830A800A900AA0128088D
:1005A000AB000313772078080317AA002908FF3A45
:1005B0002A05AB002808AC002B08AD0003130C2063
:1005C0000C3003179A0015089C0014089B00023099
:1005D0009D0015089F0014089E000130A1001930ED
:1005E000A0000313E6207808031796009608031D61
:1005F000142B97011708033C031C082B170814073A
:10060000840083131518831700089806970AFA2A9E
:100610000430140784008313151883170008180288
:100620000319142B023096001608F800780893007E
:100630000530110784008313121883178001930873
:10064000031D262B0130F800282B282B0030F80042
:10065000F8080319B22CFB0183160313EF016F088E
:10066000023C031C972B6F0883120317910006307E
:100670009200031322227808223EF800FA010318A0
:10068000FA0A7808031791007A089200940011087A
:10069000930096017030950003134922F80803195E
:1006A000942B0130FB00FC08031D912B83166F086F
:1006B000831203179100143092000313222278084A
:1006C000343EF800FA010318FA0A7808031791007B
:1006D0007A08920011088400831312188317800887
:1006E00003198A2B9401040893001410831B14141B
:1006F000000803130C1E7A2B9900031713088400BB
:10070000831314188317840A031D892B0313850A86
:1007100003176F2B0A3003130C1E8C2B990001302A
:10072000FC008316972B83128316EF0A2F2BFB08EE
:10073000031DDA2BFC08031DDA2B8312031790012B
:100740001008043C031CD62B703010078400831360
:10075000000891001108920037309300931BC32BBF
:100760000F30F700120EF7050A3077020318BB2B83
:100770003030F707BD2B1308F707770803130C1E5B
:10078000BF2B990003170F3092050A30120203188D
:10079000CB2B3030CD2B9313130892071208031381
:1007A0000C1ED02B99000317900AA02B0130FC00DF
:1007B0008316031350308312031792009301013004
:1007C0009700123096000230980001309A001430E1
:1007D00099000530A8000430A900AA012808AB0040
:1007E0000313772078080317AA002908FF3A2A057F
:1007F000AB002808AC002B08AD0003130C200A3016
:100800000317A8008030A900AA012808AB00031331
:10081000772078080317AA002A082904AB002808C3
:10082000AC002B08AD0003130C2003179B01180824
:100830001B020318302C1708FA001608960A031931
:10084000970A840083137A18831700089D000930E3
:10085000AC001D08AD0003130C2003179B0A172CD6
:100860000130AC000330AD0003130C20FF30031740
:100870009B000530AB0003137720780803179C001A
:100880009B039B080319462C1C1D392C1908F800E2
:100890001A08FA0019089D001A089E002230AB00C1
:1008A0000313772003171D08840083131E18831772
:1008B0007808800001301907F8001A08FA000318B8
:1008C000FA0A78089D007A089E002130AB000313D5
:1008D000772003171D08840083131E1883177808D8
:1008E00080000830A8008030A900AA012808AB00C9
:1008F0000313772078080317AA002908FF3A2A056E
:10090000AB002808AC002B08AD0003130C200C3002
:1009100003179A0001309C0012309B0004309D00A8
:1009200001309F0012309E000130A1001130A00064
:100930000313E62008300317A800A900AA0128081D
:10094000AB000313772078080317AA002908FF3AA1
:100950002A05AB002808AC002B08AD0003130C20BF
:10096000FD010317B82CFC017D08313C0318FD0A7A
:100970006A3083160313A5000230A6008A110A16F6
:100980008312632B080016308400831700080319B4
:10099000D62C0630F800F701F70BCC2CF80BCB2C3B
:1009A0007B30F700F70BD22C800BC92C08000B080A
:1009B0000317910003138B13831603178C170C1462
:1009C000000000008312911FE82C03138B170317FC
:1009D0000C087F390319292D91000D0892000F088A
:1009E0009300110895008A15031300208A1103173C
:1009F00012088D0013088F0003130B0803179400CF
:100A000003138B13831603178C170C1400000000BC
:100A10008312941F0E2D03138B1703170C0D0E0D4D
:100A20007F390319292D91000D0892000F089300BA
:100A3000110895008A15031300208A110317120864
:100A40008D0013088F008D0A03198F0A0313D72C0A
:100A500003170313080078080319332D7708800063
:100A6000840AF80B2E2D0800F0080319F52DFB0859
:100A70000319AA2D8316EF016F08023C031CA82D51
:100A80006F0883120317910006309200031322228D
:100A90007808223EF800FA010318FA0A78080317CA
:100AA00091007A089200940011089300960170302A
:100AB000950003134922F8080319A52D18300317D0
:100AC0008D0006308F000313D72483166F0883121E
:100AD0000317910014309200031322227808343E49
:100AE000F800FA010318FA0A7808031791007A0847
:100AF00092000A3095008A15031300208A1103170B
:100B00001108840083131218831780080319A12D7C
:100B10009401040893001410831B1414000895001A
:100B20008A15031300208A11031713088400831306
:100B300014188317840A031DA02D0313850A0317B5
:100B4000852D83160313A82D83128316EF0A3C2DDF
:100B5000F42D8312203003178D0006308F0003130D
:100B6000D724283003178D0006308F000313D724B5
:100B7000031790011008043C031CF22D703010077D
:100B8000840083130008910011089200373093000D
:100B9000931BDE2D0F30F700120EF7050A30770297
:100BA0000318D52D3030F707D72D1308F70777082E
:100BB00095008A15031300208A1103170F30920540
:100BC0000A3012020318E62D3030E82D9313130873
:100BD0009207120895008A15031300208A11031743
:100BE000900ABA2D8316031383127D08313C031833
:100BF0000E2E2B3003178D0006308F000313D724E1
:100C0000703084008313F7010630F8002B25323052
:100C100003178D0006308F000313D724343083165A
:100C2000AC000530AD008A110A168312632B080050
:100C30000C2AC8204E24A0214F27C710A110210044
:100C40008C25C827CE232028C82049104E2B000110
:100C50008A24441D20000C2C4927A021C820CF1035
:100C6000A11021000A2BD524CC27CE23A028D522E1
:100C7000542AC8220000D8244E104324C127A110B2
:100C8000A11021000A2BD524CC27CE23A028D522C1
:100C9000542AC82200010915831609118312091468
:100CA000831609108312091483160910572E582E23
:100CB000000083120910831609105E2E5F2E0000BB
:100CC0008312091483160910652E662E0000013068
:100CD00083120317AC000F30AD0003130C20702EED
:100CE000712E00002A300317AC008D30AD000313C5
:100CF0000C202B300317AC003E30AD0003130C204A
:100D00002D300317AC001E30AD0003130C202C3027
:100D10000317AC00AD0103130C2015300317AC0012
:100D20004030AD0003130C2011300317AC003D30F0
:100D3000AD0003130C2014300317A8000330A900E2
:100D4000AA012808AB000313772078080317AA002C
:100D50002908FF3A2A05AB002808AC002B08AD0093
:100D600003130C2014300317AB000313772078080B
:100D70008316AE00143083120317A8000330A900B5
:100D8000AA012808AB000313772078080317AA00EC
:100D90002A082904AB002808AC002B08AD00031377
:080DA0000C208A110A16FB2A3F
:1010000003171508073A0313031910280B3A03199D
:101010007629063A0319D52A023A03193C2C932D56
:101020000130031796009700170B17281A28403035
:1010300098001B289801013016029807180880387C
:1010400099009A0119089B008316031308110810D0
:1010500088108312081083160810081688160817BF
:1010600088178312881483168810000083120815CD
:10107000831608110000831203179E0183160313C1
:10108000081600308312081A013003179E048316D5
:101090000313881600308312881A0130F7000310FA
:1010A000F70D770803179E04831603130817003003
:1010B0008312081B0130F700F70DF70DFC30F70520
:1010C000770803179E0483160313881700308312D2
:1010D000881B0130F700F70DF70DF70DF830F70515
:1010E000770803179E041E08F80078089D00031374
:1010F00008118316081100008312081583160811C1
:10110000812882280000831203179E01831603138F
:10111000081600308312081A013003179E04831644
:101120000313881600308312881A0130F700031069
:10113000F70D770803179E04831603130817003072
:101140008312081B0130F700F70DF70DFC30F7058F
:10115000770803179E048316031388170030831241
:10116000881B0130F700F70DF70DF70DF830F70584
:10117000770803179E041E08F80078089C000313E4
:101180000811831608110812881208138813831295
:1011900003171D0EF700F030F70577081C04F80060
:1011A00078089C009C1FD728831603132D289A08C3
:1011B000031DDE2803130810E02803170313081487
:1011C0008316081000008312881083168810000010
:1011D0008312081183160811831203171B0E9C003B
:1011E0000F309C051C089D001D18FA2803130812D7
:1011F000FC2803170313081683160812831203171B
:101200009D1806290313881208290317031388164B
:1012100083168812831203171D191229031308134A
:1012200014290317031308178316081383120317CF
:101230009D191E29031388132029031703138817E8
:1012400083168813000083120815831608110230D4
:10125000F700F70B29292C290000831208118316A7
:101260000811831203171B080F399C001C089D00EE
:101270001D183E29031308124029031703130816EB
:1012800083160812831203179D184A290313881224
:101290004C29031703138816831688128312031729
:1012A0001D19562903130813582903170313081788
:1012B00083160813831203179D19622903138813D9
:1012C00064290317031388178316881300008312F9
:1012D0000815831608110230F700F70B6D297029E5
:1012E00000008312081183160811E92E03179A01D2
:1012F00001309B0083160313081108108810831215
:101300000810831608100816881608178817831205
:10131000881483168810000083120815831608119C
:101320000000831203179E01831603130816003072
:101330008312081A013003179E04831603138816BC
:1013400000308312881A0130F7000310F70D770878
:1013500003179E0483160313081700308312081B1B
:101360000130F700F70DF70DFC30F705770803178C
:101370009E0483160313881700308312881B0130E4
:10138000F700F70DF70DF70DF830F705770803179D
:101390009E041E08F80078089D00031308118316A8
:1013A000081100008312081583160811D729D829BF
:1013B0000000831203179E018316031308160030E2
:1013C0008312081A013003179E048316031388162C
:1013D00000308312881A0130F7000310F70D7708E8
:1013E00003179E0483160313081700308312081B8B
:1013F0000130F700F70DF70DFC30F70577080317FC
:101400009E0483160313881700308312881B013053
:10141000F700F70DF70DF70DF830F705770803170C
:101420009E041E08F80078089C0003130811831618
:1014300008110812881208138813831203171D0E4F
:10144000F700F030F70577081C04F80078089C00D6
:101450009C1F2D2A8316031383299A08031D342AFF
:1014600003130810362A03170313081483160810F1
:101470000000831288108316881000008312081160
:1014800083160811831203171B0E9C000F309C0556
:101490001C089D001D18502A03130812522A031716
:1014A0000313081683160812831203179D185C2A6B
:1014B000031388125E2A03170313881683168812F3
:1014C000831203171D19682A031308136A2A0317C6
:1014D0000313081783160813831203179D19742A20
:1014E00003138813762A03170313881783168813A8
:1014F000000083120815831608110230F700F70B5D
:101500007F2A822A00008312081183160811831291
:1015100003171B080F399C001C089D001D18942AF6
:1015200003130812962A03170313081683160812CA
:10153000831203179D18A02A03138812A22A0317E7
:101540000313881683168812831203171D19AC2AF9
:1015500003130813AE2A031703130817831608137F
:10156000831203179D19B82A03138813BA2A031785
:101570000313881783168813000083120815831637
:1015800008110230F700F70BC32AC62A00008312A5
:1015900008118316081102308312031796008A116E
:1015A0000313C3248A158316E92E0130031796000E
:1015B00002309700170BDD2AE02A40309800E12A1C
:1015C00098010130160298071808803899009A018E
:1015D00019089B0083160313081108108810831242
:1015E0000810831608100816881608178817831223
:1015F00088148316881000008312081583160811BA
:101600000000831203179E0183160313081600308F
:101610008312081A013003179E04831603138816D9
:1016200000308312881A0130F7000310F70D770895
:1016300003179E0483160313081700308312081B38
:101640000130F700F70DF70DFC30F70577080317A9
:101650009E0483160313881700308312881B013001
:10166000F700F70DF70DF70DF830F70577080317BA
:101670009E041E08F80078089D00031308118316C5
:10168000081100008312081583160811472B482BF8
:101690000000831203179E018316031308160030FF
:1016A0008312081A013003179E0483160313881649
:1016B00000308312881A0130F7000310F70D770805
:1016C00003179E0483160313081700308312081BA8
:1016D0000130F700F70DF70DFC30F7057708031719
:1016E0009E0483160313881700308312881B013071
:1016F000F700F70DF70DF70DF830F705770803172A
:101700009E041E08F80078089C0003130811831635
:1017100008110812881208138813831203171D0E6C
:10172000F700F030F70577081C04F80078089C00F3
:101730009C1F9D2B83160313F32A9A08031DA42BC9
:1017400003130810A62B031703130814831608109D
:10175000000083128810831688100000831208117D
:1017600083160811831203171B0E9C000F309C0573
:101770001C089D001D18C02B03130812C22B031751
:101780000313081683160812831203179D18CC2B17
:1017900003138812CE2B031703138816831688129F
:1017A000831203171D19D82B03130813DA2B031701
:1017B0000313081783160813831203179D19E42BCC
:1017C00003138813E62B0317031388178316881354
:1017D000000083120815831608110230F700F70B7A
:1017E000EF2BF22B000083120811831608118312CD
:1017F00003171B080F399C001C089D001D18042CA2
:1018000003130812062C0317031308168316081275
:10181000831203179D18102C03138812122C031720
:101820000313881683168812831203171D191C2CA4
:10183000031308131E2C031703130817831608132A
:10184000831203179D19282C031388132A2C0317BE
:101850000313881783168813000083120815831654
:1018600008110230F700F70B332C362C00008312DE
:10187000081183160811E92E03179A0110309B00F6
:10188000831603130811081088108312081083169A
:1018900008100816881608178817831288148316EC
:1018A00088100000831208158316081100008312A7
:1018B00003179E0183160313081600308312081ABB
:1018C000013003179E048316031388160030831219
:1018D000881A0130F7000310F70D770803179E04EC
:1018E00083160313081700308312081B0130F7001A
:1018F000F70DF70DFC30F705770803179E048316E4
:101900000313881700308312881B0130F700F70D8E
:10191000F70DF70DF830F705770803179E041E083A
:10192000F80078089D0003130811831608110000C1
:1019300083120815831608119D2C9E2C000083121B
:1019400003179E0183160313081600308312081A2A
:10195000013003179E048316031388160030831288
:10196000881A0130F7000310F70D770803179E045B
:1019700083160313081700308312081B0130F70089
:10198000F70DF70DFC30F705770803179E04831653
:101990000313881700308312881B0130F700F70DFE
:1019A000F70DF70DF830F705770803179E041E08AA
:1019B000F80078089C000313081183160811081218
:1019C000881208138813831203171D0EF700F030D6
:1019D000F70577081C04F80078089C009C1FF32C7E
:1019E00083160313492C9A08031DFA2C03130810BD
:1019F000FC2C03170313081483160810000083122D
:101A000088108316881000008312081183160811AD
:101A1000831203171B0E9C000F309C051C089D00B1
:101A20001D18162D03130812182D0317031308167B
:101A300083160812831203179D18222D0313881290
:101A4000242D031703138816831688128312031795
:101A50001D192E2D03130813302D03170313081718
:101A600083160813831203179D193A2D0313881345
:101A70003C2D031703138817831688130000831265
:101A80000815831608110230F700F70B452D482D75
:101A900000008312081183160811831203171B0814
:101AA0000F399C001C089D001D185A2D03130812A5
:101AB0005C2D0317031308168316081283120317ED
:101AC0009D18662D03138812682D031703138816BB
:101AD00083168812831203171D19722D031308131E
:101AE000742D0317031308178316081383120317A3
:101AF0009D197E2D03138813802D03170313881758
:101B0000831688130000831208158316081102300B
:101B1000F700F70B892D8C2D000083120811831616
:101B20000811E92E8312013003179A0015089B0053
:101B300083160313081108108810831208108316E7
:101B40000810081688160817881783128814831639
:101B500088100000831208158316081100008312F4
:101B600003179E0183160313081600308312081A08
:101B7000013003179E048316031388160030831266
:101B8000881A0130F7000310F70D770803179E0439
:101B900083160313081700308312081B0130F70067
:101BA000F70DF70DFC30F705770803179E04831631
:101BB0000313881700308312881B0130F700F70DDC
:101BC000F70DF70DF830F705770803179E041E0888
:101BD000F80078089D00031308118316081100000F
:101BE0008312081583160811F52DF62D00008312B7
:101BF00003179E0183160313081600308312081A78
:101C0000013003179E0483160313881600308312D5
:101C1000881A0130F7000310F70D770803179E04A8
:101C200083160313081700308312081B0130F700D6
:101C3000F70DF70DFC30F705770803179E048316A0
:101C40000313881700308312881B0130F700F70D4B
:101C5000F70DF70DF830F705770803179E041E08F7
:101C6000F80078089C000313081183160811081265
:101C7000881208138813831203171D0EF700F03023
:101C8000F70577081C04F80078089C009C1F4B2E71
:101C900083160313A12D9A08031D522E0313081057
:101CA000542E031703130814831608100000831220
:101CB00088108316881000008312081183160811FB
:101CC000831203171B0E9C000F309C051C089D00FF
:101CD0001D186E2E03130812702E03170313081617
:101CE00083160812831203179D187A2E0313881285
:101CF0007C2E03170313881683168812831203178A
:101D00001D19862E03130813882E031703130817B3
:101D100083160813831203179D19922E0313881339
:101D2000942E031703138817831688130000831259
:101D30000815831608110230F700F70B9D2EA02E10
:101D400000008312081183160811831203171B0861
:101D50000F399C001C089D001D18B22E0313081299
:101D6000B42E0317031308168316081283120317E1
:101D70009D18BE2E03138812C02E03170313881656
:101D800083168812831203171D19CA2E0313081312
:101D9000CC2E031703130817831608138312031797
:101DA0009D19D62E03138813D82E031703138817F3
:101DB0008316881300008312081583160811023059
:101DC000F700F70BE12EE42E0000831208118316B2
:061DD00008118312080057
:1020000028308316AF000C30B0000130B10006302C
:10201000B200831208118316081183120810831668
:10202000081083128810831688100812881208136B
:1020300088130811081088100F30831203179600B8
:102040000A120313C3240A1601308316AE002E08A9
:10205000033C031C77280330831203179D001D18CF
:10206000352803130812372803170313081683169D
:102070000812831203179D1841280313881243285E
:1020800003170313881683168812831203171D196A
:102090004D28031308134F2803170313081783163B
:1020A0000813831203179D195928031388135B28FB
:1020B000031703138817831688130000831208156B
:1020C000831608110230F700F70B64286728000018
:1020D0008312081183160811053083120317960026
:1020E0000A120313C3240A168316AE0A27280230E5
:1020F000831203179D001D188128031308128328DB
:1021000003170313081683160812831203179D186A
:102110008D28031388128F2803170313881683163C
:102120008812831203171D199928031308139B287B
:1021300003170313081783160813831203179D1937
:10214000A52803138813A7280317031388178316DA
:102150008813000083120815831608110230F70057
:10216000F70BB028B328000083120811831608115A
:1021700005308312031796000A120313C3240A16AC
:102180008316AE012E08033C031C282AAF302E070D
:10219000840083130008B300831203179A01831687
:1021A00003133308831203179B00831603130811CC
:1021B0000810881083120810831608100816881655
:1021C000081788178312881483168810000083125A
:1021D0000815831608110000831203179E01831649
:1021E0000313081600308312081A013003179E04E7
:1021F00083160313881600308312881A0130F70003
:102200000310F70D770803179E04831603130817AE
:1022100000308312081B0130F700F70DF70DFC307A
:10222000F705770803179E048316031388170030F9
:102230008312881B0130F700F70DF70DF70DF8300A
:10224000F705770803179E041E08F80078089D001C
:102250000313081183160811000083120815831652
:102260000811322933290000831203179E018316B7
:102270000313081600308312081A013003179E0456
:1022800083160313881600308312881A0130F70072
:102290000310F70D770803179E048316031308171E
:1022A00000308312081B0130F700F70DF70DFC30EA
:1022B000F705770803179E04831603138817003069
:1022C0008312881B0130F700F70DF70DF70DF8307A
:1022D000F705770803179E041E08F80078089C008D
:1022E00003130811831608110812881208138813A3
:1022F000831203171D0EF700F030F70577081C0452
:10230000F80078089C009C1F882983160313DE2898
:102310009A08031D8F29031308109129031703132B
:102320000814831608100000831288108316881082
:1023300000008312081183160811831203171B0E65
:102340009C000F309C051C089D001D18AB29031331
:102350000812AD29031703130816831608128312F7
:1023600003179D18B72903138812B92903170313FC
:10237000881683168812831203171D19C3290313A5
:102380000813C529031703130817831608138312AC
:1023900003179D19CF2903138813D129031703139A
:1023A00088178316881300008312081583160811F6
:1023B0000230F700F70BDA29DD290000831208113B
:1023C00083160811831203171B080F399C001C0881
:1023D0009D001D18EF2903130812F1290317031399
:1023E000081683160812831203179D18FB2903137E
:1023F0008812FD2903170313881683168812831287
:1024000003171D19072A03130813092A03170313B7
:10241000081783160813831203179D19132A031331
:102420008813152A031703138817831688130000CF
:1024300083120815831608110230F700F70B1E2AC5
:10244000212A00008312081183160811AE0AC2283F
:1024500083128A110A16D82A03081F398300813093
:1024600083169900A6309800903083129800FF30B0
:10247000A100FB01FC01FD0183161F149F141F1511
:102480009F1107309C0083130E308312A200FE3090
:10249000A3003030A4000230A500C230A600A7017E
:1024A0000E30A800FE30A9003030AA000230AB0088
:1024B0006230AC00AD01A330AE002B30AF00143061
:1024C000B0002D30B100B130B200B3014E30B400D5
:1024D0004730B5005530B6005930B7004530B80028
:1024E0004E30B9002030BA004D30BB004130BC0046
:1024F0004E30BD004830BE002030BF005430C00018
:102500005530C1004130C2004E30C3002D30C400F0
:102510003030C5003430C600C7014230C8005530E5
:10252000C9004930CA002030CB005430CC005230B2
:10253000CD005530CE004E30CF004730D000203097
:10254000D1004330D2004830D3004930D4004E305F
:10255000D5004830D6002D30D7003930D800D9000A
:10256000DA01DB015630DC004F30DD002030DE00C8
:102570005430DF004830E0004130E1004E30E200EE
:102580004830E3002030E4005330E5004130E600FD
:102590004E30E7004730E8002D30E9003030EA00E7
:1025A0003330EB003230EC003430ED00EE01002827
:1025B0003B3003178D0006308F000A120313D72417
:1025C0000A1604308316AE00FA3083120317960001
:1025D0000A120313C3240A168316AE0BE42A4230F0
:1025E000831203178D0006308F000A120313D724BD
:1025F0000A160A124B2E0A16703084008313F70154
:102600000630F8000A122B250A16F601FB01FC0120
:10261000FD018316A001A2010A30A100A401A301BB
:102620006A30A5000230A600A701A9011430A80055
:10263000AB010130AA003430AC000530AD0083128C
:10264000A00183160108C039073881003D3083128C
:1026500081000B110310200DF7000A1204200A1646
:10266000F900013077070A1204200A16FA007908E7
:10267000840083137A1883170008F900840A00087D
:10268000F700840A0008F800840A800A0008FA00AB
:10269000031D4D2B840A800A8403840A00087802F3
:1026A000031D652B77087A02031D652B84038001C7
:1026B000840A8001840AF91B652B840A00088A00B9
:1026C00084030008820083120313A00A0230200250
:1026D000031D2A2BA00101080B1D702B8316262B2E
:0826E0006B2BFF30A00063002A
:02400E00323F3F
:00000001FF
;PIC16F877A
;CRC=7A0E  CREATED="02-Jan-25 06:27"
